{
  "contractName": "PaySpec",
  "abi": [
    {
      "inputs": [],
      "payable": false,
      "stateMutability": "nonpayable",
      "type": "constructor"
    },
    {
      "payable": true,
      "stateMutability": "payable",
      "type": "fallback"
    },
    {
      "anonymous": false,
      "inputs": [
        {
          "indexed": false,
          "name": "uuid",
          "type": "bytes32"
        }
      ],
      "name": "CreatedInvoice",
      "type": "event"
    },
    {
      "anonymous": false,
      "inputs": [
        {
          "indexed": false,
          "name": "uuid",
          "type": "bytes32"
        },
        {
          "indexed": false,
          "name": "from",
          "type": "address"
        }
      ],
      "name": "PaidInvoice",
      "type": "event"
    },
    {
      "constant": false,
      "inputs": [
        {
          "name": "description",
          "type": "string"
        },
        {
          "name": "nonce",
          "type": "uint256"
        },
        {
          "name": "token",
          "type": "address"
        },
        {
          "name": "amountDue",
          "type": "uint256"
        },
        {
          "name": "payTo",
          "type": "address"
        },
        {
          "name": "ethBlockExpiresAt",
          "type": "uint256"
        }
      ],
      "name": "createInvoice",
      "outputs": [
        {
          "name": "uuid",
          "type": "uint256"
        }
      ],
      "payable": false,
      "stateMutability": "nonpayable",
      "type": "function"
    },
    {
      "constant": false,
      "inputs": [
        {
          "name": "invoiceUUID",
          "type": "bytes32"
        },
        {
          "name": "from",
          "type": "address"
        }
      ],
      "name": "payInvoice",
      "outputs": [
        {
          "name": "",
          "type": "bool"
        }
      ],
      "payable": false,
      "stateMutability": "nonpayable",
      "type": "function"
    },
    {
      "constant": true,
      "inputs": [
        {
          "name": "invoiceUUID",
          "type": "bytes32"
        }
      ],
      "name": "invoiceWasPaid",
      "outputs": [
        {
          "name": "",
          "type": "bool"
        }
      ],
      "payable": false,
      "stateMutability": "view",
      "type": "function"
    },
    {
      "constant": true,
      "inputs": [
        {
          "name": "invoiceUUID",
          "type": "bytes32"
        }
      ],
      "name": "invoiceExpiresAt",
      "outputs": [
        {
          "name": "",
          "type": "uint256"
        }
      ],
      "payable": false,
      "stateMutability": "view",
      "type": "function"
    },
    {
      "constant": true,
      "inputs": [
        {
          "name": "invoiceUUID",
          "type": "bytes32"
        }
      ],
      "name": "invoiceHasExpired",
      "outputs": [
        {
          "name": "",
          "type": "bool"
        }
      ],
      "payable": false,
      "stateMutability": "view",
      "type": "function"
    },
    {
      "constant": false,
      "inputs": [
        {
          "name": "from",
          "type": "address"
        },
        {
          "name": "tokens",
          "type": "uint256"
        },
        {
          "name": "token",
          "type": "address"
        },
        {
          "name": "data",
          "type": "bytes"
        }
      ],
      "name": "receiveApproval",
      "outputs": [
        {
          "name": "",
          "type": "bool"
        }
      ],
      "payable": false,
      "stateMutability": "nonpayable",
      "type": "function"
    }
  ],
  "bytecode": "0x608060405234801561001057600080fd5b50610d18806100206000396000f3fe608060405260043610610078576000357c0100000000000000000000000000000000000000000000000000000000900463ffffffff16806308ce5e5a1461007d57806344b2c1f4146100d05780638f4ffcb11461011f578063a3e72fd414610249578063b4f8a82e14610383578063b85398e4146103f6575b600080fd5b34801561008957600080fd5b506100b6600480360360208110156100a057600080fd5b8101908080359060200190929190505050610449565b604051808215151515815260200191505060405180910390f35b3480156100dc57600080fd5b50610109600480360360208110156100f357600080fd5b8101908080359060200190929190505050610472565b6040518082815260200191505060405180910390f35b34801561012b57600080fd5b5061022f6004803603608081101561014257600080fd5b81019080803573ffffffffffffffffffffffffffffffffffffffff16906020019092919080359060200190929190803573ffffffffffffffffffffffffffffffffffffffff169060200190929190803590602001906401000000008111156101a957600080fd5b8201836020820111156101bb57600080fd5b803590602001918460018302840111640100000000831117156101dd57600080fd5b91908080601f016020809104026020016040519081016040528093929190818152602001838380828437600081840152601f19601f820116905080830192505050505050509192919290505050610491565b604051808215151515815260200191505060405180910390f35b34801561025557600080fd5b5061036d600480360360c081101561026c57600080fd5b810190808035906020019064010000000081111561028957600080fd5b82018360208201111561029b57600080fd5b803590602001918460018302840111640100000000831117156102bd57600080fd5b91908080601f016020809104026020016040519081016040528093929190818152602001838380828437600081840152601f19601f82011690508083019250505050505050919291929080359060200190929190803573ffffffffffffffffffffffffffffffffffffffff16906020019092919080359060200190929190803573ffffffffffffffffffffffffffffffffffffffff169060200190929190803590602001909291905050506104be565b6040518082815260200191505060405180910390f35b34801561038f57600080fd5b506103dc600480360360408110156103a657600080fd5b8101908080359060200190929190803573ffffffffffffffffffffffffffffffffffffffff169060200190929190505050610829565b604051808215151515815260200191505060405180910390f35b34801561040257600080fd5b5061042f6004803603602081101561041957600080fd5b8101908080359060200190929190505050610b32565b604051808215151515815260200191505060405180910390f35b60008061045583610472565b1415801561046b575061046782610472565b4310155b9050919050565b6000806000838152602001908152602001600020600a01549050919050565b60006104a76104a1836000610b69565b86610829565b15156104b257600080fd5b60019050949350505050565b60008043905060008888888888866040516020018087805190602001908083835b60208310151561050457805182526020820191506020810190506020830392506104df565b6001836020036101000a0380198251168184511680821785525050505050509050018681526020018573ffffffffffffffffffffffffffffffffffffffff1673ffffffffffffffffffffffffffffffffffffffff166c010000000000000000000000000281526014018481526020018373ffffffffffffffffffffffffffffffffffffffff1673ffffffffffffffffffffffffffffffffffffffff166c01000000000000000000000000028152601401828152602001965050505050505060405160208183030381529060405280519060200120905060006001026000808381526020019081526020016000206000015414151561060157600080fd5b610160604051908101604052808281526020018a81526020018981526020018873ffffffffffffffffffffffffffffffffffffffff1681526020018781526020018673ffffffffffffffffffffffffffffffffffffffff168152602001838152602001600073ffffffffffffffffffffffffffffffffffffffff1681526020016000815260200160008152602001858152506000808381526020019081526020016000206000820151816000015560208201518160010190805190602001906106cb929190610c47565b506040820151816002015560608201518160030160006101000a81548173ffffffffffffffffffffffffffffffffffffffff021916908373ffffffffffffffffffffffffffffffffffffffff1602179055506080820151816004015560a08201518160050160006101000a81548173ffffffffffffffffffffffffffffffffffffffff021916908373ffffffffffffffffffffffffffffffffffffffff16021790555060c0820151816006015560e08201518160070160006101000a81548173ffffffffffffffffffffffffffffffffffffffff021916908373ffffffffffffffffffffffffffffffffffffffff1602179055506101008201518160080155610120820151816009015561014082015181600a01559050507fc7ef264b3f844cbb14c2236b9e9682cdb5827cb89858ad61f7d3e7df566ec4c7816040518082815260200191505060405180910390a182925050509695505050505050565b6000826000808581526020019081526020016000206000015414151561084e57600080fd5b6000151561085b84610b32565b151514151561086957600080fd5b6000151561087684610449565b151514151561088457600080fd5b60008084815260200190815260200160002060030160009054906101000a900473ffffffffffffffffffffffffffffffffffffffff1673ffffffffffffffffffffffffffffffffffffffff166323b872dd8360008087815260200190815260200160002060050160009054906101000a900473ffffffffffffffffffffffffffffffffffffffff16600080888152602001908152602001600020600401546040518463ffffffff167c0100000000000000000000000000000000000000000000000000000000028152600401808473ffffffffffffffffffffffffffffffffffffffff1673ffffffffffffffffffffffffffffffffffffffff1681526020018373ffffffffffffffffffffffffffffffffffffffff1673ffffffffffffffffffffffffffffffffffffffff1681526020018281526020019350505050602060405180830381600087803b1580156109da57600080fd5b505af11580156109ee573d6000803e3d6000fd5b505050506040513d6020811015610a0457600080fd5b81019080805190602001909291905050501515610a2057600080fd5b60008084815260200190815260200160002060040154600080858152602001908152602001600020600801819055508160008085815260200190815260200160002060070160006101000a81548173ffffffffffffffffffffffffffffffffffffffff021916908373ffffffffffffffffffffffffffffffffffffffff16021790555043600080858152602001908152602001600020600901819055507f8c312afe1806eaa44098445e756760724a25f74268c8e3b29276b885713247d08383604051808381526020018273ffffffffffffffffffffffffffffffffffffffff1673ffffffffffffffffffffffffffffffffffffffff1681526020019250505060405180910390a16001905092915050565b6000806000838152602001908152602001600020600401546000808481526020019081526020016000206008015410159050919050565b60008060008090505b6020811015610c3c576008810260ff7f01000000000000000000000000000000000000000000000000000000000000000286838701815181101515610bb357fe5b9060200101517f010000000000000000000000000000000000000000000000000000000000000090047f010000000000000000000000000000000000000000000000000000000000000002167effffffffffffffffffffffffffffffffffffffffffffffffffffffffffffff1916908060020a8204915050821791508080600101915050610b72565b508091505092915050565b828054600181600116156101000203166002900490600052602060002090601f016020900481019282601f10610c8857805160ff1916838001178555610cb6565b82800160010185558215610cb6579182015b82811115610cb5578251825591602001919060010190610c9a565b5b509050610cc39190610cc7565b5090565b610ce991905b80821115610ce5576000816000905550600101610ccd565b5090565b9056fea165627a7a72305820c8c3f3ae4a9ac868739bd805da52e1054b34540f7197c02738d4eae466a9f0390029",
  "source": "pragma solidity ^0.5.0;\n\n\n\n/**\n * @title SafeMath\n * @dev Math operations with safety checks that throw on error\n */\nlibrary SafeMath {\n\n  /**\n  * @dev Multiplies two numbers, throws on overflow.\n  */\n  function mul(uint256 a, uint256 b) internal pure returns (uint256) {\n    if (a == 0) {\n      return 0;\n    }\n    uint256 c = a * b;\n    assert(c / a == b);\n    return c;\n  }\n\n  /**\n  * @dev Integer division of two numbers, truncating the quotient.\n  */\n  function div(uint256 a, uint256 b) internal pure returns (uint256) {\n    // assert(b > 0); // Solidity automatically throws when dividing by 0\n    uint256 c = a / b;\n    // assert(a == b * c + a % b); // There is no case in which this doesn't hold\n    return c;\n  }\n\n  /**\n  * @dev Substracts two numbers, throws on overflow (i.e. if subtrahend is greater than minuend).\n  */\n  function sub(uint256 a, uint256 b) internal pure returns (uint256) {\n    assert(b <= a);\n    return a - b;\n  }\n\n  /**\n  * @dev Adds two numbers, throws on overflow.\n  */\n  function add(uint256 a, uint256 b) internal pure returns (uint256) {\n    uint256 c = a + b;\n    assert(c >= a);\n    return c;\n  }\n}\n\n\n\n/*\nPAYSPEC: Generic global invoicing contract\n\n\n*/\n\ncontract ERC20Interface {\n    function totalSupply() public view returns (uint);\n    function balanceOf(address tokenOwner) public view returns (uint balance);\n    function allowance(address tokenOwner, address spender) public view returns (uint remaining);\n    function transfer(address to, uint tokens) public returns (bool success);\n    function approve(address spender, uint tokens) public returns (bool success);\n    function transferFrom(address from, address to, uint tokens) public returns (bool success);\n\n    event Transfer(address indexed from, address indexed to, uint tokens);\n    event Approval(address indexed tokenOwner, address indexed spender, uint tokens);\n}\n\n\ncontract ApproveAndCallFallBack {\n    function receiveApproval(address from, uint256 tokens, address token, bytes memory data) public;\n}\n\n\n\n\n\n\ncontract PaySpec  {\n\n   using SafeMath for uint;\n\n\n   mapping(bytes32 => Invoice) invoices;\n\n\n\n  event CreatedInvoice(bytes32 uuid);\n  event PaidInvoice(bytes32 uuid, address from);\n\n\n  struct Invoice {\n    bytes32 uuid;\n    string description;\n    uint256 nonce;\n\n\n    address token;\n    uint256 amountDue;\n    address payTo;\n    uint256 ethBlockCreatedAt;\n\n\n    address paidBy;\n    uint256 amountPaid;\n    uint256 ethBlockPaidAt;\n\n\n    uint256 ethBlockExpiresAt;\n\n  }\n\n\n\n  constructor(  ) public {\n\n\n  }\n\n\n  //do not allow ether to enter\n  function() external    payable {\n      revert();\n  }\n\n\n\n\n   function createInvoice(  string memory description, uint256 nonce, address token, uint256 amountDue, address payTo, uint256 ethBlockExpiresAt ) public returns (uint uuid) {\n\n\n\n\n      uint256 ethBlockCreatedAt = block.number;\n\n      bytes32 newuuid = keccak256( abi.encodePacked( description, nonce, token, amountDue, payTo, ethBlockCreatedAt ) );\n\n      require( invoices[newuuid].uuid == 0 );  //make sure you do not overwrite invoices\n\n      invoices[newuuid] = Invoice({\n       uuid:newuuid,\n       description:description,\n       nonce: nonce,\n       token: token,\n       amountDue: amountDue,\n       payTo: payTo,\n       ethBlockCreatedAt: ethBlockCreatedAt,\n       paidBy: address(0),\n       amountPaid: 0,\n       ethBlockPaidAt: 0,\n       ethBlockExpiresAt: ethBlockExpiresAt\n\n      });\n\n\n       emit CreatedInvoice(newuuid);\n\n       return uuid;\n   }\n\n   function payInvoice( bytes32 invoiceUUID, address from) public returns (bool) {\n\n       require( invoices[invoiceUUID].uuid == invoiceUUID ); //make sure invoice exists\n       require( invoiceWasPaid(invoiceUUID) == false );\n       require( invoiceHasExpired(invoiceUUID) == false);\n\n       //transfer the tokens\n       require( ERC20Interface( invoices[invoiceUUID].token  ).transferFrom( from ,  invoices[invoiceUUID].payTo, invoices[invoiceUUID].amountDue   ) );\n\n       invoices[invoiceUUID].amountPaid = invoices[invoiceUUID].amountDue;\n\n       invoices[invoiceUUID].paidBy = from;\n\n       invoices[invoiceUUID].ethBlockPaidAt = block.number;\n\n\n\n       emit PaidInvoice(invoiceUUID, from);\n\n       return true;\n\n\n   }\n\n\n   function invoiceWasPaid( bytes32 invoiceUUID ) public view returns (bool)\n   {\n       return invoices[invoiceUUID].amountPaid >= invoices[invoiceUUID].amountDue;\n   }\n\n\n\n   function invoiceExpiresAt( bytes32 invoiceUUID ) public view returns (uint)\n   {\n       return invoices[invoiceUUID].ethBlockExpiresAt;\n   }\n\n   function invoiceHasExpired( bytes32 invoiceUUID ) public view returns (bool)\n   {\n       return (invoiceExpiresAt(invoiceUUID) != 0 && block.number >= invoiceExpiresAt(invoiceUUID));\n   }\n\n   /*\n     Receive approval from ApproveAndCall() to pay invoice.  The first 32 bytes of the data array are used for the invoice UUID bytes32.\n\n   */\n     function receiveApproval(address from, uint256 tokens, address token, bytes memory data) public returns (bool) {\n\n        require(  payInvoice(bytesToBytes32(data,0), from)  );\n\n        return true;\n\n     }\n\n    function bytesToBytes32(bytes memory b, uint offset) private pure returns (bytes32) {\n      bytes32 out;\n\n      for (uint i = 0; i < 32; i++) {\n        out |= bytes32(b[offset + i] & 0xFF) >> (i * 8);\n      }\n      return out;\n    }\n\n\n}\n",
  "sourcePath": "/home/andy/dev/senderc-contract/contracts/SendERC.sol",
  "compiler": {
    "name": "solc",
    "version": "0.5.0+commit.1d4f565a.Emscripten.clang"
  },
  "schemaVersion": "3.0.3",
  "updatedAt": "2020-01-10T02:39:49.801Z",
  "devdoc": {
    "methods": {}
  },
  "userdoc": {
    "methods": {}
  }
}