{
  "contractName": "PaySpec",
  "abi": [
    {
      "inputs": [],
      "payable": false,
      "stateMutability": "nonpayable",
      "type": "constructor"
    },
    {
      "payable": true,
      "stateMutability": "payable",
      "type": "fallback"
    },
    {
      "anonymous": false,
      "inputs": [
        {
          "indexed": false,
          "name": "uuid",
          "type": "bytes32"
        }
      ],
      "name": "CreatedInvoice",
      "type": "event"
    },
    {
      "anonymous": false,
      "inputs": [
        {
          "indexed": false,
          "name": "uuid",
          "type": "bytes32"
        },
        {
          "indexed": false,
          "name": "from",
          "type": "address"
        }
      ],
      "name": "PaidInvoice",
      "type": "event"
    },
    {
      "constant": false,
      "inputs": [
        {
          "name": "refNumber",
          "type": "uint256"
        },
        {
          "name": "description",
          "type": "string"
        },
        {
          "name": "token",
          "type": "address"
        },
        {
          "name": "amountDue",
          "type": "uint256"
        },
        {
          "name": "payTo",
          "type": "address"
        },
        {
          "name": "ethBlockExpiresAt",
          "type": "uint256"
        }
      ],
      "name": "createInvoice",
      "outputs": [
        {
          "name": "uuid",
          "type": "uint256"
        }
      ],
      "payable": false,
      "stateMutability": "nonpayable",
      "type": "function"
    },
    {
      "constant": false,
      "inputs": [
        {
          "name": "invoiceUUID",
          "type": "bytes32"
        }
      ],
      "name": "payInvoice",
      "outputs": [
        {
          "name": "",
          "type": "bool"
        }
      ],
      "payable": false,
      "stateMutability": "nonpayable",
      "type": "function"
    },
    {
      "constant": true,
      "inputs": [
        {
          "name": "invoiceUUID",
          "type": "bytes32"
        }
      ],
      "name": "getDescription",
      "outputs": [
        {
          "name": "",
          "type": "string"
        }
      ],
      "payable": false,
      "stateMutability": "view",
      "type": "function"
    },
    {
      "constant": true,
      "inputs": [
        {
          "name": "invoiceUUID",
          "type": "bytes32"
        }
      ],
      "name": "getRefNumber",
      "outputs": [
        {
          "name": "",
          "type": "uint256"
        }
      ],
      "payable": false,
      "stateMutability": "view",
      "type": "function"
    },
    {
      "constant": true,
      "inputs": [
        {
          "name": "invoiceUUID",
          "type": "bytes32"
        }
      ],
      "name": "getEthBlockExpiredAt",
      "outputs": [
        {
          "name": "",
          "type": "uint256"
        }
      ],
      "payable": false,
      "stateMutability": "view",
      "type": "function"
    },
    {
      "constant": true,
      "inputs": [
        {
          "name": "invoiceUUID",
          "type": "bytes32"
        }
      ],
      "name": "getTokenAddress",
      "outputs": [
        {
          "name": "",
          "type": "address"
        }
      ],
      "payable": false,
      "stateMutability": "view",
      "type": "function"
    },
    {
      "constant": true,
      "inputs": [
        {
          "name": "invoiceUUID",
          "type": "bytes32"
        }
      ],
      "name": "getRecipientAddress",
      "outputs": [
        {
          "name": "",
          "type": "address"
        }
      ],
      "payable": false,
      "stateMutability": "view",
      "type": "function"
    },
    {
      "constant": true,
      "inputs": [
        {
          "name": "invoiceUUID",
          "type": "bytes32"
        }
      ],
      "name": "getAmountDue",
      "outputs": [
        {
          "name": "",
          "type": "uint256"
        }
      ],
      "payable": false,
      "stateMutability": "view",
      "type": "function"
    },
    {
      "constant": true,
      "inputs": [
        {
          "name": "invoiceUUID",
          "type": "bytes32"
        }
      ],
      "name": "getAmountPaid",
      "outputs": [
        {
          "name": "",
          "type": "uint256"
        }
      ],
      "payable": false,
      "stateMutability": "view",
      "type": "function"
    },
    {
      "constant": true,
      "inputs": [
        {
          "name": "invoiceUUID",
          "type": "bytes32"
        }
      ],
      "name": "getEthBlockPaidAt",
      "outputs": [
        {
          "name": "",
          "type": "uint256"
        }
      ],
      "payable": false,
      "stateMutability": "view",
      "type": "function"
    },
    {
      "constant": true,
      "inputs": [
        {
          "name": "invoiceUUID",
          "type": "bytes32"
        }
      ],
      "name": "invoiceWasPaid",
      "outputs": [
        {
          "name": "",
          "type": "bool"
        }
      ],
      "payable": false,
      "stateMutability": "view",
      "type": "function"
    },
    {
      "constant": true,
      "inputs": [
        {
          "name": "invoiceUUID",
          "type": "bytes32"
        }
      ],
      "name": "invoiceHasExpired",
      "outputs": [
        {
          "name": "",
          "type": "bool"
        }
      ],
      "payable": false,
      "stateMutability": "view",
      "type": "function"
    },
    {
      "constant": false,
      "inputs": [
        {
          "name": "from",
          "type": "address"
        },
        {
          "name": "tokens",
          "type": "uint256"
        },
        {
          "name": "token",
          "type": "address"
        },
        {
          "name": "data",
          "type": "bytes"
        }
      ],
      "name": "receiveApproval",
      "outputs": [
        {
          "name": "",
          "type": "bool"
        }
      ],
      "payable": false,
      "stateMutability": "nonpayable",
      "type": "function"
    }
  ],
  "bytecode": "0x608060405234801561001057600080fd5b506114b4806100206000396000f3fe6080604052600436106100c5576000357c0100000000000000000000000000000000000000000000000000000000900463ffffffff168063042eabff146100ca57806308ce5e5a14610119578063222ab3471461016c57806326302bba146101bf5780636e5a2d6c146102f957806381f42261146103485780638f4ffcb1146103975780639fbf7b85146104c1578063b12e441014610510578063b820a0ed1461058b578063b85398e41461063f578063e4361e1e14610692578063f606e6ce1461070d575b600080fd5b3480156100d657600080fd5b50610103600480360360208110156100ed57600080fd5b810190808035906020019092919050505061075c565b6040518082815260200191505060405180910390f35b34801561012557600080fd5b506101526004803603602081101561013c57600080fd5b810190808035906020019092919050505061077b565b604051808215151515815260200191505060405180910390f35b34801561017857600080fd5b506101a56004803603602081101561018f57600080fd5b81019080803590602001909291905050506107a4565b604051808215151515815260200191505060405180910390f35b3480156101cb57600080fd5b506102e3600480360360c08110156101e257600080fd5b81019080803590602001909291908035906020019064010000000081111561020957600080fd5b82018360208201111561021b57600080fd5b8035906020019184600183028401116401000000008311171561023d57600080fd5b91908080601f016020809104026020016040519081016040528093929190818152602001838380828437600081840152601f19601f820116905080830192505050505050509192919290803573ffffffffffffffffffffffffffffffffffffffff16906020019092919080359060200190929190803573ffffffffffffffffffffffffffffffffffffffff1690602001909291908035906020019092919050505061091e565b6040518082815260200191505060405180910390f35b34801561030557600080fd5b506103326004803603602081101561031c57600080fd5b8101908080359060200190929190505050610cc4565b6040518082815260200191505060405180910390f35b34801561035457600080fd5b506103816004803603602081101561036b57600080fd5b8101908080359060200190929190505050610ce3565b6040518082815260200191505060405180910390f35b3480156103a357600080fd5b506104a7600480360360808110156103ba57600080fd5b81019080803573ffffffffffffffffffffffffffffffffffffffff16906020019092919080359060200190929190803573ffffffffffffffffffffffffffffffffffffffff1690602001909291908035906020019064010000000081111561042157600080fd5b82018360208201111561043357600080fd5b8035906020019184600183028401116401000000008311171561045557600080fd5b91908080601f016020809104026020016040519081016040528093929190818152602001838380828437600081840152601f19601f820116905080830192505050505050509192919290505050610d02565b604051808215151515815260200191505060405180910390f35b3480156104cd57600080fd5b506104fa600480360360208110156104e457600080fd5b8101908080359060200190929190505050610e86565b6040518082815260200191505060405180910390f35b34801561051c57600080fd5b506105496004803603602081101561053357600080fd5b8101908080359060200190929190505050610ea5565b604051808273ffffffffffffffffffffffffffffffffffffffff1673ffffffffffffffffffffffffffffffffffffffff16815260200191505060405180910390f35b34801561059757600080fd5b506105c4600480360360208110156105ae57600080fd5b8101908080359060200190929190505050610ee4565b6040518080602001828103825283818151815260200191508051906020019080838360005b838110156106045780820151818401526020810190506105e9565b50505050905090810190601f1680156106315780820380516001836020036101000a031916815260200191505b509250505060405180910390f35b34801561064b57600080fd5b506106786004803603602081101561066257600080fd5b8101908080359060200190929190505050610f9b565b604051808215151515815260200191505060405180910390f35b34801561069e57600080fd5b506106cb600480360360208110156106b557600080fd5b8101908080359060200190929190505050610fd2565b604051808273ffffffffffffffffffffffffffffffffffffffff1673ffffffffffffffffffffffffffffffffffffffff16815260200191505060405180910390f35b34801561071957600080fd5b506107466004803603602081101561073057600080fd5b8101908080359060200190929190505050611011565b6040518082815260200191505060405180910390f35b6000806000838152602001908152602001600020600401549050919050565b60008061078783611011565b1415801561079d575061079982611011565b4310155b9050919050565b600080600083815260200190815260200160002060030160009054906101000a900473ffffffffffffffffffffffffffffffffffffffff1673ffffffffffffffffffffffffffffffffffffffff166323b872dd3330600080878152602001908152602001600020600401546040518463ffffffff167c0100000000000000000000000000000000000000000000000000000000028152600401808473ffffffffffffffffffffffffffffffffffffffff1673ffffffffffffffffffffffffffffffffffffffff1681526020018373ffffffffffffffffffffffffffffffffffffffff1673ffffffffffffffffffffffffffffffffffffffff1681526020018281526020019350505050602060405180830381600087803b1580156108c757600080fd5b505af11580156108db573d6000803e3d6000fd5b505050506040513d60208110156108f157600080fd5b8101908080519060200190929190505050151561090d57600080fd5b6109178233611030565b9050919050565b6000804390506000338989898989604051602001808773ffffffffffffffffffffffffffffffffffffffff1673ffffffffffffffffffffffffffffffffffffffff166c0100000000000000000000000002815260140186815260200185805190602001908083835b6020831015156109ab5780518252602082019150602081019050602083039250610986565b6001836020036101000a0380198251168184511680821785525050505050509050018473ffffffffffffffffffffffffffffffffffffffff1673ffffffffffffffffffffffffffffffffffffffff166c010000000000000000000000000281526014018381526020018273ffffffffffffffffffffffffffffffffffffffff1673ffffffffffffffffffffffffffffffffffffffff166c010000000000000000000000000281526014019650505050505050604051602081830303815290604052805190602001209050600060010260008083815260200190815260200160002060000154141515610a9c57600080fd5b610160604051908101604052808281526020018981526020018a81526020018873ffffffffffffffffffffffffffffffffffffffff1681526020018781526020018673ffffffffffffffffffffffffffffffffffffffff168152602001838152602001600073ffffffffffffffffffffffffffffffffffffffff168152602001600081526020016000815260200185815250600080838152602001908152602001600020600082015181600001556020820151816001019080519060200190610b669291906113e3565b506040820151816002015560608201518160030160006101000a81548173ffffffffffffffffffffffffffffffffffffffff021916908373ffffffffffffffffffffffffffffffffffffffff1602179055506080820151816004015560a08201518160050160006101000a81548173ffffffffffffffffffffffffffffffffffffffff021916908373ffffffffffffffffffffffffffffffffffffffff16021790555060c0820151816006015560e08201518160070160006101000a81548173ffffffffffffffffffffffffffffffffffffffff021916908373ffffffffffffffffffffffffffffffffffffffff1602179055506101008201518160080155610120820151816009015561014082015181600a01559050507fc7ef264b3f844cbb14c2236b9e9682cdb5827cb89858ad61f7d3e7df566ec4c7816040518082815260200191505060405180910390a182925050509695505050505050565b6000806000838152602001908152602001600020600801549050919050565b6000806000838152602001908152602001600020600201549050919050565b60008273ffffffffffffffffffffffffffffffffffffffff163373ffffffffffffffffffffffffffffffffffffffff16141515610d3e57600080fd5b8273ffffffffffffffffffffffffffffffffffffffff166323b872dd8630876040518463ffffffff167c0100000000000000000000000000000000000000000000000000000000028152600401808473ffffffffffffffffffffffffffffffffffffffff1673ffffffffffffffffffffffffffffffffffffffff1681526020018373ffffffffffffffffffffffffffffffffffffffff1673ffffffffffffffffffffffffffffffffffffffff1681526020018281526020019350505050602060405180830381600087803b158015610e1557600080fd5b505af1158015610e29573d6000803e3d6000fd5b505050506040513d6020811015610e3f57600080fd5b81019080805190602001909291905050501515610e5b57600080fd5b610e6f610e69836000611305565b86611030565b1515610e7a57600080fd5b60019050949350505050565b6000806000838152602001908152602001600020600901549050919050565b600080600083815260200190815260200160002060030160009054906101000a900473ffffffffffffffffffffffffffffffffffffffff169050919050565b60606000808381526020019081526020016000206001018054600181600116156101000203166002900480601f016020809104026020016040519081016040528092919081815260200182805460018160011615610100020316600290048015610f8f5780601f10610f6457610100808354040283529160200191610f8f565b820191906000526020600020905b815481529060010190602001808311610f7257829003601f168201915b50505050509050919050565b6000806000838152602001908152602001600020600401546000808481526020019081526020016000206008015410159050919050565b600080600083815260200190815260200160002060050160009054906101000a900473ffffffffffffffffffffffffffffffffffffffff169050919050565b6000806000838152602001908152602001600020600a01549050919050565b6000826000808581526020019081526020016000206000015414151561105557600080fd5b6000151561106284610f9b565b151514151561107057600080fd5b6000151561107d8461077b565b151514151561108b57600080fd5b60008084815260200190815260200160002060030160009054906101000a900473ffffffffffffffffffffffffffffffffffffffff1673ffffffffffffffffffffffffffffffffffffffff1663a9059cbb60008086815260200190815260200160002060050160009054906101000a900473ffffffffffffffffffffffffffffffffffffffff16600080878152602001908152602001600020600401546040518363ffffffff167c0100000000000000000000000000000000000000000000000000000000028152600401808373ffffffffffffffffffffffffffffffffffffffff1673ffffffffffffffffffffffffffffffffffffffff16815260200182815260200192505050602060405180830381600087803b1580156111ad57600080fd5b505af11580156111c1573d6000803e3d6000fd5b505050506040513d60208110156111d757600080fd5b810190808051906020019092919050505015156111f357600080fd5b60008084815260200190815260200160002060040154600080858152602001908152602001600020600801819055508160008085815260200190815260200160002060070160006101000a81548173ffffffffffffffffffffffffffffffffffffffff021916908373ffffffffffffffffffffffffffffffffffffffff16021790555043600080858152602001908152602001600020600901819055507f8c312afe1806eaa44098445e756760724a25f74268c8e3b29276b885713247d08383604051808381526020018273ffffffffffffffffffffffffffffffffffffffff1673ffffffffffffffffffffffffffffffffffffffff1681526020019250505060405180910390a16001905092915050565b60008060008090505b60208110156113d8576008810260ff7f0100000000000000000000000000000000000000000000000000000000000000028683870181518110151561134f57fe5b9060200101517f010000000000000000000000000000000000000000000000000000000000000090047f010000000000000000000000000000000000000000000000000000000000000002167effffffffffffffffffffffffffffffffffffffffffffffffffffffffffffff1916908060020a820491505082179150808060010191505061130e565b508091505092915050565b828054600181600116156101000203166002900490600052602060002090601f016020900481019282601f1061142457805160ff1916838001178555611452565b82800160010185558215611452579182015b82811115611451578251825591602001919060010190611436565b5b50905061145f9190611463565b5090565b61148591905b80821115611481576000816000905550600101611469565b5090565b9056fea165627a7a723058207c91999ba3e417f8ec18f00a99afd25ef56e4fd1e7509f000ae5482b29f485e90029",
  "source": "pragma solidity ^0.5.0;\n\n\n\n/**\n * @title SafeMath\n * @dev Math operations with safety checks that throw on error\n */\nlibrary SafeMath {\n\n  /**\n  * @dev Multiplies two numbers, throws on overflow.\n  */\n  function mul(uint256 a, uint256 b) internal pure returns (uint256) {\n    if (a == 0) {\n      return 0;\n    }\n    uint256 c = a * b;\n    assert(c / a == b);\n    return c;\n  }\n\n  /**\n  * @dev Integer division of two numbers, truncating the quotient.\n  */\n  function div(uint256 a, uint256 b) internal pure returns (uint256) {\n    // assert(b > 0); // Solidity automatically throws when dividing by 0\n    uint256 c = a / b;\n    // assert(a == b * c + a % b); // There is no case in which this doesn't hold\n    return c;\n  }\n\n  /**\n  * @dev Substracts two numbers, throws on overflow (i.e. if subtrahend is greater than minuend).\n  */\n  function sub(uint256 a, uint256 b) internal pure returns (uint256) {\n    assert(b <= a);\n    return a - b;\n  }\n\n  /**\n  * @dev Adds two numbers, throws on overflow.\n  */\n  function add(uint256 a, uint256 b) internal pure returns (uint256) {\n    uint256 c = a + b;\n    assert(c >= a);\n    return c;\n  }\n}\n\n\n\n/*\nPAYSPEC: Generic global invoicing contract\n\n\n*/\n\ncontract ERC20Interface {\n    function totalSupply() public view returns (uint);\n    function balanceOf(address tokenOwner) public view returns (uint balance);\n    function allowance(address tokenOwner, address spender) public view returns (uint remaining);\n    function transfer(address to, uint tokens) public returns (bool success);\n    function approve(address spender, uint tokens) public returns (bool success);\n    function transferFrom(address from, address to, uint tokens) public returns (bool success);\n\n    event Transfer(address indexed from, address indexed to, uint tokens);\n    event Approval(address indexed tokenOwner, address indexed spender, uint tokens);\n}\n\n\ncontract ApproveAndCallFallBack {\n    function receiveApproval(address from, uint256 tokens, address token, bytes memory data) public;\n}\n\n\n\n\n\n\ncontract PaySpec  {\n\n   using SafeMath for uint;\n\n\n   mapping(bytes32 => Invoice) invoices;\n\n\n\n  event CreatedInvoice(bytes32 uuid);\n  event PaidInvoice(bytes32 uuid, address from);\n\n\n  struct Invoice {\n    bytes32 uuid;\n    string description;\n    uint256 refNumber;\n\n\n    address token;\n    uint256 amountDue;\n    address payTo;\n    uint256 ethBlockCreatedAt;\n\n\n    address paidBy;\n    uint256 amountPaid;\n    uint256 ethBlockPaidAt;\n\n\n    uint256 ethBlockExpiresAt;\n\n  }\n\n\n\n  constructor(  ) public {\n\n\n  }\n\n\n  //do not allow ether to enter\n  function() external    payable {\n      revert();\n  }\n\n\n\n\n   function createInvoice(  uint256 refNumber, string memory description,  address token, uint256 amountDue, address payTo, uint256 ethBlockExpiresAt ) public returns (uint uuid) {\n\n\n\n\n      uint256 ethBlockCreatedAt = block.number;\n\n      bytes32 newuuid = keccak256( abi.encodePacked(msg.sender, refNumber, description,  token, amountDue, payTo ) );\n\n      require( invoices[newuuid].uuid == 0 );  //make sure you do not overwrite invoices\n\n      invoices[newuuid] = Invoice({\n       uuid: newuuid,\n       description: description,\n       refNumber: refNumber,\n       token: token,\n       amountDue: amountDue,\n       payTo: payTo,\n       ethBlockCreatedAt: ethBlockCreatedAt,\n       paidBy: address(0),\n       amountPaid: 0,\n       ethBlockPaidAt: 0,\n       ethBlockExpiresAt: ethBlockExpiresAt\n\n      });\n\n\n       emit CreatedInvoice(newuuid);\n\n       return uuid;\n   }\n\n   function payInvoice(bytes32 invoiceUUID) public returns (bool)\n   {\n     //transfer the tokens into escrow into this contract to stage for paying the invoice\n     require( ERC20Interface(  invoices[invoiceUUID].token ).transferFrom(msg.sender, address(this),  invoices[invoiceUUID].amountDue )   );\n\n     return _payInvoiceInternal( invoiceUUID, msg.sender);\n\n\n   }\n\n   function _payInvoiceInternal( bytes32 invoiceUUID, address from ) private returns (bool) {\n\n       require( invoices[invoiceUUID].uuid == invoiceUUID ); //make sure invoice exists\n       require( invoiceWasPaid(invoiceUUID) == false );\n       require( invoiceHasExpired(invoiceUUID) == false);\n\n       //Transfer the tokens. Always transfer from this contracts escrow (not wildcard) so tokens only approved to this universal contract cannot be spent by others.\n       require( ERC20Interface( invoices[invoiceUUID].token  ).transfer(  invoices[invoiceUUID].payTo, invoices[invoiceUUID].amountDue   ) );\n\n       invoices[invoiceUUID].amountPaid = invoices[invoiceUUID].amountDue;\n\n       invoices[invoiceUUID].paidBy = from;\n\n       invoices[invoiceUUID].ethBlockPaidAt = block.number;\n\n\n\n       emit PaidInvoice(invoiceUUID, from);\n\n       return true;\n\n\n   }\n\n   function getDescription( bytes32 invoiceUUID ) public view returns ( string  memory )\n   {\n       return invoices[invoiceUUID].description;\n   }\n\n   function getRefNumber( bytes32 invoiceUUID ) public view returns (uint)\n   {\n       return invoices[invoiceUUID].refNumber;\n   }\n\n   function getEthBlockExpiredAt( bytes32 invoiceUUID ) public view returns (uint)\n   {\n       return invoices[invoiceUUID].ethBlockExpiresAt;\n   }\n\n   function getTokenAddress( bytes32 invoiceUUID ) public view returns (address)\n   {\n       return invoices[invoiceUUID].token;\n   }\n\n   function getRecipientAddress( bytes32 invoiceUUID ) public view returns (address)\n   {\n       return invoices[invoiceUUID].payTo;\n   }\n\n\n   function getAmountDue( bytes32 invoiceUUID ) public view returns (uint)\n   {\n       return invoices[invoiceUUID].amountDue;\n   }\n\n   function getAmountPaid( bytes32 invoiceUUID ) public view returns (uint)\n   {\n       return invoices[invoiceUUID].amountPaid;\n   }\n\n   function getEthBlockPaidAt( bytes32 invoiceUUID ) public view returns (uint)\n   {\n       return invoices[invoiceUUID].ethBlockPaidAt;\n   }\n\n\n\n\n   function invoiceWasPaid( bytes32 invoiceUUID ) public view returns (bool)\n   {\n       return invoices[invoiceUUID].amountPaid >= invoices[invoiceUUID].amountDue;\n   }\n\n\n   function invoiceHasExpired( bytes32 invoiceUUID ) public view returns (bool)\n   {\n       return (getEthBlockExpiredAt(invoiceUUID) != 0 && block.number >= getEthBlockExpiredAt(invoiceUUID));\n   }\n\n   /*\n     Receive approval from ApproveAndCall() to pay invoice.  The first 32 bytes of the data array are used for the invoice UUID bytes32.\n\n   */\n     function receiveApproval(address from, uint256 tokens, address token, bytes memory data) public returns (bool) {\n\n        //can only be called by the token contract\n        require(msg.sender == token);\n\n        //transfer the tokens into escrow into this contract to stage for paying the invoice\n        require( ERC20Interface(token).transferFrom(from, address(this), tokens)   );\n\n        require(  _payInvoiceInternal(bytesToBytes32(data,0), from)  );\n\n        return true;\n\n     }\n\n    function bytesToBytes32(bytes memory b, uint offset) private pure returns (bytes32) {\n      bytes32 out;\n\n      for (uint i = 0; i < 32; i++) {\n        out |= bytes32(b[offset + i] & 0xFF) >> (i * 8);\n      }\n      return out;\n    }\n\n\n}\n",
  "sourcePath": "/home/andy/dev/senderc-contract/contracts/SendERC.sol",
  "compiler": {
    "name": "solc",
    "version": "0.5.0+commit.1d4f565a.Emscripten.clang"
  },
  "schemaVersion": "3.0.3",
  "updatedAt": "2020-01-11T19:18:54.905Z",
  "devdoc": {
    "methods": {}
  },
  "userdoc": {
    "methods": {}
  }
}